:1000000012C02CC02BC02AC029C028C027C026C0BF
:1000100025C0B1C023C022C021C020C01FC01EC047
:100020001DC01CC01BC011241FBECFE5D4E0DEBF25
:10003000CDBF10E0A0E6B0E0EEE7F3E002C005902F
:100040000D92AA38B107D9F720E0AAE8B0E001C0C4
:100050001D92A839B207E1F7DFD08FC1D1CF0F933E
:100060001F93CF93DF93AC018C01169507951695DE
:100070000795169507959801A5ECB0E272D1EC01B1
:10008000D295C295CF70CD27DF70CD27FE01EE0F40
:10009000FF1FE05AFF4F80819181909397008093DA
:1000A000960028EE33E0C29FC001C39F900DD29FFF
:1000B000900D11249A01281B390B369527953695FA
:1000C0002795ABE7B4E14DD18E7FFC01EC58FF4F93
:1000D0008081918190939500809394009A01369548
:1000E0002795369527953DD19C013695279564E651
:1000F000629FC001639F900D11249A01281B390B48
:10010000ADECBCEC2ED196958795969587959695F6
:100110008795FC01EE0FFF1FEC58FF4F8081918106
:1001200090939300809392009A011BD196958795A6
:1001300096958795969587959C01220F331F880F7A
:10014000991F880F991F880F991F820F931F9A017B
:10015000281B390BC901880F991FFC01EC58FF4F70
:10016000808191819093910080939000DF91CF9155
:100170001F910F9108951F920F920FB60F921124A5
:100180008F9380E682BB80918800813021F485BB0B
:100190008091960082BB80918800823021F485BBDB
:1001A0008091940082BB80918800833029F484E0A0
:1001B00085BB8091920082BB80918800843029F4B5
:1001C00088E085BB8091900082BB809188008F5F22
:1001D00080938800853019F481E0809388008F91A6
:1001E0000F900FBE0F901F90189581E790E09093AD
:1001F0009700809396008EE390E090939500809313
:10020000940088E390E09093930080939200909301
:1002100091008093900008958FEF81BB8FE184BBA4
:1002200017BA8FE088BB8091740082BB83B782606D
:1002300083BF83B78E7F83BF83B78B7F83BF89B72D
:10024000816089BF78941EBC1DBC1CBCC0E01DBC75
:10025000B09B07C080918B00811105C0CC2329F091
:1002600005C080E003C080E001C081E0882361F028
:100270001CBC82E08EBD81E080938B0081E090E029
:1002800090938D0080938C00B09906C080918B0074
:10029000813021F080E003C080E001C081E088234C
:1002A00019F010928B00C1E080918C0090918D002C
:1002B0008130910531F08330910509F1892B01F5E9
:1002C00018C08DB58CB5811102C081E001C080E0FD
:1002D0008823B1F080918E0090918F00C0DE8091D4
:1002E0008E0090918F00019690938F0080938E00E6
:1002F00007C080918E0090918F00B1DE01C075DF44
:10030000B19906C080918A00882321F080E003C063
:1003100080E001C081E0882339F081E080938A0089
:1003200010928D0010928C00B19B06C080918A00C3
:10033000813021F080E003C080E001C081E08111C4
:1003400010928A0080918E0090918F0080319742A8
:100350000CF47DCF83E090E090938D0080938C002F
:1003600076CFA29FB001B39FC001A39F01D0B29FDF
:0E037000700D811D1124911D0895F894FFCF8A
:10037E00BF008600DB00CF00E600ED00FD00870029
:10038E00FF00EF003F0006005B004F0066006D00AF
:0A039E007D0007007F006F000100E2
:00000001FF
